{
  "_format": "hh-sol-artifact-1",
  "contractName": "DIDMemeNFT",
  "sourceName": "contracts/DIDMemeNFT.sol",
  "abi": [
    {
      "inputs": [],
      "stateMutability": "nonpayable",
      "type": "constructor"
    },
    {
      "anonymous": false,
      "inputs": [
        {
          "indexed": true,
          "internalType": "address",
          "name": "owner",
          "type": "address"
        },
        {
          "indexed": true,
          "internalType": "address",
          "name": "approved",
          "type": "address"
        },
        {
          "indexed": true,
          "internalType": "uint256",
          "name": "tokenId",
          "type": "uint256"
        }
      ],
      "name": "Approval",
      "type": "event"
    },
    {
      "anonymous": false,
      "inputs": [
        {
          "indexed": true,
          "internalType": "address",
          "name": "owner",
          "type": "address"
        },
        {
          "indexed": true,
          "internalType": "address",
          "name": "operator",
          "type": "address"
        },
        {
          "indexed": false,
          "internalType": "bool",
          "name": "approved",
          "type": "bool"
        }
      ],
      "name": "ApprovalForAll",
      "type": "event"
    },
    {
      "anonymous": false,
      "inputs": [
        {
          "indexed": true,
          "internalType": "address",
          "name": "from",
          "type": "address"
        },
        {
          "indexed": true,
          "internalType": "address",
          "name": "to",
          "type": "address"
        },
        {
          "indexed": true,
          "internalType": "uint256",
          "name": "tokenId",
          "type": "uint256"
        }
      ],
      "name": "Transfer",
      "type": "event"
    },
    {
      "inputs": [
        {
          "internalType": "address",
          "name": "to",
          "type": "address"
        },
        {
          "internalType": "uint256",
          "name": "tokenId",
          "type": "uint256"
        }
      ],
      "name": "approve",
      "outputs": [],
      "stateMutability": "nonpayable",
      "type": "function"
    },
    {
      "inputs": [
        {
          "internalType": "address",
          "name": "invitee",
          "type": "address"
        },
        {
          "internalType": "string",
          "name": "tokenURI",
          "type": "string"
        }
      ],
      "name": "awardItem",
      "outputs": [
        {
          "internalType": "uint256",
          "name": "",
          "type": "uint256"
        }
      ],
      "stateMutability": "nonpayable",
      "type": "function"
    },
    {
      "inputs": [
        {
          "internalType": "address",
          "name": "owner",
          "type": "address"
        }
      ],
      "name": "balanceOf",
      "outputs": [
        {
          "internalType": "uint256",
          "name": "",
          "type": "uint256"
        }
      ],
      "stateMutability": "view",
      "type": "function"
    },
    {
      "inputs": [
        {
          "internalType": "uint256",
          "name": "tokenId",
          "type": "uint256"
        }
      ],
      "name": "getApproved",
      "outputs": [
        {
          "internalType": "address",
          "name": "",
          "type": "address"
        }
      ],
      "stateMutability": "view",
      "type": "function"
    },
    {
      "inputs": [
        {
          "internalType": "address",
          "name": "owner",
          "type": "address"
        },
        {
          "internalType": "address",
          "name": "operator",
          "type": "address"
        }
      ],
      "name": "isApprovedForAll",
      "outputs": [
        {
          "internalType": "bool",
          "name": "",
          "type": "bool"
        }
      ],
      "stateMutability": "view",
      "type": "function"
    },
    {
      "inputs": [],
      "name": "name",
      "outputs": [
        {
          "internalType": "string",
          "name": "",
          "type": "string"
        }
      ],
      "stateMutability": "view",
      "type": "function"
    },
    {
      "inputs": [
        {
          "internalType": "uint256",
          "name": "tokenId",
          "type": "uint256"
        }
      ],
      "name": "ownerOf",
      "outputs": [
        {
          "internalType": "address",
          "name": "",
          "type": "address"
        }
      ],
      "stateMutability": "view",
      "type": "function"
    },
    {
      "inputs": [
        {
          "internalType": "address",
          "name": "from",
          "type": "address"
        },
        {
          "internalType": "address",
          "name": "to",
          "type": "address"
        },
        {
          "internalType": "uint256",
          "name": "tokenId",
          "type": "uint256"
        }
      ],
      "name": "safeTransferFrom",
      "outputs": [],
      "stateMutability": "nonpayable",
      "type": "function"
    },
    {
      "inputs": [
        {
          "internalType": "address",
          "name": "from",
          "type": "address"
        },
        {
          "internalType": "address",
          "name": "to",
          "type": "address"
        },
        {
          "internalType": "uint256",
          "name": "tokenId",
          "type": "uint256"
        },
        {
          "internalType": "bytes",
          "name": "_data",
          "type": "bytes"
        }
      ],
      "name": "safeTransferFrom",
      "outputs": [],
      "stateMutability": "nonpayable",
      "type": "function"
    },
    {
      "inputs": [
        {
          "internalType": "address",
          "name": "operator",
          "type": "address"
        },
        {
          "internalType": "bool",
          "name": "approved",
          "type": "bool"
        }
      ],
      "name": "setApprovalForAll",
      "outputs": [],
      "stateMutability": "nonpayable",
      "type": "function"
    },
    {
      "inputs": [
        {
          "internalType": "bytes4",
          "name": "interfaceId",
          "type": "bytes4"
        }
      ],
      "name": "supportsInterface",
      "outputs": [
        {
          "internalType": "bool",
          "name": "",
          "type": "bool"
        }
      ],
      "stateMutability": "view",
      "type": "function"
    },
    {
      "inputs": [],
      "name": "symbol",
      "outputs": [
        {
          "internalType": "string",
          "name": "",
          "type": "string"
        }
      ],
      "stateMutability": "view",
      "type": "function"
    },
    {
      "inputs": [
        {
          "internalType": "uint256",
          "name": "tokenId",
          "type": "uint256"
        }
      ],
      "name": "tokenURI",
      "outputs": [
        {
          "internalType": "string",
          "name": "",
          "type": "string"
        }
      ],
      "stateMutability": "view",
      "type": "function"
    },
    {
      "inputs": [
        {
          "internalType": "address",
          "name": "from",
          "type": "address"
        },
        {
          "internalType": "address",
          "name": "to",
          "type": "address"
        },
        {
          "internalType": "uint256",
          "name": "tokenId",
          "type": "uint256"
        }
      ],
      "name": "transferFrom",
      "outputs": [],
      "stateMutability": "nonpayable",
      "type": "function"
    },
    {
      "inputs": [
        {
          "internalType": "string",
          "name": "",
          "type": "string"
        }
      ],
      "name": "uris",
      "outputs": [
        {
          "internalType": "uint8",
          "name": "",
          "type": "uint8"
        }
      ],
      "stateMutability": "view",
      "type": "function"
    }
  ],
  "bytecode": "0x60806040523480156200001157600080fd5b506040518060400160405280600781526020017f4449444d454d45000000000000000000000000000000000000000000000000008152506040518060400160405280600781526020017f4449444d454d4500000000000000000000000000000000000000000000000000815250816000908051906020019062000096929190620000b8565b508060019080519060200190620000af929190620000b8565b505050620001cd565b828054620000c69062000168565b90600052602060002090601f016020900481019282620000ea576000855562000136565b82601f106200010557805160ff191683800117855562000136565b8280016001018555821562000136579182015b828111156200013557825182559160200191906001019062000118565b5b50905062000145919062000149565b5090565b5b80821115620001645760008160009055506001016200014a565b5090565b600060028204905060018216806200018157607f821691505b602082108114156200019857620001976200019e565b5b50919050565b7f4e487b7100000000000000000000000000000000000000000000000000000000600052602260045260246000fd5b612db080620001dd6000396000f3fe608060405234801561001057600080fd5b50600436106100f55760003560e01c806370a0823111610097578063c87b56dd11610066578063c87b56dd14610282578063cf378343146102b2578063e985e9c5146102e2578063f1c81d4c14610312576100f5565b806370a08231146101fc57806395d89b411461022c578063a22cb4651461024a578063b88d4fde14610266576100f5565b8063095ea7b3116100d3578063095ea7b31461017857806323b872dd1461019457806342842e0e146101b05780636352211e146101cc576100f5565b806301ffc9a7146100fa57806306fdde031461012a578063081812fc14610148575b600080fd5b610114600480360381019061010f9190611d62565b610342565b60405161012191906121f2565b60405180910390f35b610132610424565b60405161013f919061220d565b60405180910390f35b610162600480360381019061015d9190611df5565b6104b6565b60405161016f919061218b565b60405180910390f35b610192600480360381019061018d9190611d26565b61053b565b005b6101ae60048036038101906101a99190611bcc565b610653565b005b6101ca60048036038101906101c59190611bcc565b6106b3565b005b6101e660048036038101906101e19190611df5565b6106d3565b6040516101f3919061218b565b60405180910390f35b61021660048036038101906102119190611b67565b610785565b604051610223919061244f565b60405180910390f35b61023461083d565b604051610241919061220d565b60405180910390f35b610264600480360381019061025f9190611c96565b6108cf565b005b610280600480360381019061027b9190611c1b565b6108e5565b005b61029c60048036038101906102979190611df5565b610947565b6040516102a9919061220d565b60405180910390f35b6102cc60048036038101906102c79190611cd2565b610a99565b6040516102d9919061244f565b60405180910390f35b6102fc60048036038101906102f79190611b90565b610b7b565b60405161030991906121f2565b60405180910390f35b61032c60048036038101906103279190611db4565b610c0f565b604051610339919061246a565b60405180910390f35b60007f80ac58cd000000000000000000000000000000000000000000000000000000007bffffffffffffffffffffffffffffffffffffffffffffffffffffffff1916827bffffffffffffffffffffffffffffffffffffffffffffffffffffffff1916148061040d57507f5b5e139f000000000000000000000000000000000000000000000000000000007bffffffffffffffffffffffffffffffffffffffffffffffffffffffff1916827bffffffffffffffffffffffffffffffffffffffffffffffffffffffff1916145b8061041d575061041c82610c45565b5b9050919050565b606060008054610433906126cd565b80601f016020809104026020016040519081016040528092919081815260200182805461045f906126cd565b80156104ac5780601f10610481576101008083540402835291602001916104ac565b820191906000526020600020905b81548152906001019060200180831161048f57829003601f168201915b5050505050905090565b60006104c182610caf565b610500576040517f08c379a00000000000000000000000000000000000000000000000000000000081526004016104f7906123cf565b60405180910390fd5b6004600083815260200190815260200160002060009054906101000a900473ffffffffffffffffffffffffffffffffffffffff169050919050565b6000610546826106d3565b90508073ffffffffffffffffffffffffffffffffffffffff168373ffffffffffffffffffffffffffffffffffffffff1614156105b7576040517f08c379a00000000000000000000000000000000000000000000000000000000081526004016105ae9061240f565b60405180910390fd5b8073ffffffffffffffffffffffffffffffffffffffff166105d6610d1b565b73ffffffffffffffffffffffffffffffffffffffff1614806106055750610604816105ff610d1b565b610b7b565b5b610644576040517f08c379a000000000000000000000000000000000000000000000000000000000815260040161063b9061230f565b60405180910390fd5b61064e8383610d23565b505050565b61066461065e610d1b565b82610ddc565b6106a3576040517f08c379a000000000000000000000000000000000000000000000000000000000815260040161069a9061242f565b60405180910390fd5b6106ae838383610eba565b505050565b6106ce838383604051806020016040528060008152506108e5565b505050565b6000806002600084815260200190815260200160002060009054906101000a900473ffffffffffffffffffffffffffffffffffffffff169050600073ffffffffffffffffffffffffffffffffffffffff168173ffffffffffffffffffffffffffffffffffffffff16141561077c576040517f08c379a00000000000000000000000000000000000000000000000000000000081526004016107739061234f565b60405180910390fd5b80915050919050565b60008073ffffffffffffffffffffffffffffffffffffffff168273ffffffffffffffffffffffffffffffffffffffff1614156107f6576040517f08c379a00000000000000000000000000000000000000000000000000000000081526004016107ed9061232f565b60405180910390fd5b600360008373ffffffffffffffffffffffffffffffffffffffff1673ffffffffffffffffffffffffffffffffffffffff168152602001908152602001600020549050919050565b60606001805461084c906126cd565b80601f0160208091040260200160405190810160405280929190818152602001828054610878906126cd565b80156108c55780601f1061089a576101008083540402835291602001916108c5565b820191906000526020600020905b8154815290600101906020018083116108a857829003601f168201915b5050505050905090565b6108e16108da610d1b565b8383611121565b5050565b6108f66108f0610d1b565b83610ddc565b610935576040517f08c379a000000000000000000000000000000000000000000000000000000000815260040161092c9061242f565b60405180910390fd5b6109418484848461128e565b50505050565b606061095282610caf565b610991576040517f08c379a0000000000000000000000000000000000000000000000000000000008152600401610988906123af565b60405180910390fd5b60006006600084815260200190815260200160002080546109b1906126cd565b80601f01602080910402602001604051908101604052809291908181526020018280546109dd906126cd565b8015610a2a5780601f106109ff57610100808354040283529160200191610a2a565b820191906000526020600020905b815481529060010190602001808311610a0d57829003601f168201915b505050505090506000610a3b6112ea565b9050600081511415610a51578192505050610a94565b600082511115610a86578082604051602001610a6e929190612167565b60405160208183030381529060405292505050610a94565b610a8f84611301565b925050505b919050565b60006001600883604051610aad9190612150565b908152602001604051809103902060009054906101000a900460ff1660ff161415610b0d576040517f08c379a0000000000000000000000000000000000000000000000000000000008152600401610b049061222f565b60405180910390fd5b610b1760076113a8565b6000610b2360076113be565b9050610b2f84826113cc565b610b3981846115a6565b6001600884604051610b4b9190612150565b908152602001604051809103902060006101000a81548160ff021916908360ff1602179055508091505092915050565b6000600560008473ffffffffffffffffffffffffffffffffffffffff1673ffffffffffffffffffffffffffffffffffffffff16815260200190815260200160002060008373ffffffffffffffffffffffffffffffffffffffff1673ffffffffffffffffffffffffffffffffffffffff16815260200190815260200160002060009054906101000a900460ff16905092915050565b6008818051602081018201805184825260208301602085012081835280955050505050506000915054906101000a900460ff1681565b60007f01ffc9a7000000000000000000000000000000000000000000000000000000007bffffffffffffffffffffffffffffffffffffffffffffffffffffffff1916827bffffffffffffffffffffffffffffffffffffffffffffffffffffffff1916149050919050565b60008073ffffffffffffffffffffffffffffffffffffffff166002600084815260200190815260200160002060009054906101000a900473ffffffffffffffffffffffffffffffffffffffff1673ffffffffffffffffffffffffffffffffffffffff1614159050919050565b600033905090565b816004600083815260200190815260200160002060006101000a81548173ffffffffffffffffffffffffffffffffffffffff021916908373ffffffffffffffffffffffffffffffffffffffff160217905550808273ffffffffffffffffffffffffffffffffffffffff16610d96836106d3565b73ffffffffffffffffffffffffffffffffffffffff167f8c5be1e5ebec7d5bd14f71427d1e84f3dd0314c0f7b2291e5b200ac8c7c3b92560405160405180910390a45050565b6000610de782610caf565b610e26576040517f08c379a0000000000000000000000000000000000000000000000000000000008152600401610e1d906122ef565b60405180910390fd5b6000610e31836106d3565b90508073ffffffffffffffffffffffffffffffffffffffff168473ffffffffffffffffffffffffffffffffffffffff161480610ea057508373ffffffffffffffffffffffffffffffffffffffff16610e88846104b6565b73ffffffffffffffffffffffffffffffffffffffff16145b80610eb15750610eb08185610b7b565b5b91505092915050565b8273ffffffffffffffffffffffffffffffffffffffff16610eda826106d3565b73ffffffffffffffffffffffffffffffffffffffff1614610f30576040517f08c379a0000000000000000000000000000000000000000000000000000000008152600401610f279061226f565b60405180910390fd5b600073ffffffffffffffffffffffffffffffffffffffff168273ffffffffffffffffffffffffffffffffffffffff161415610fa0576040517f08c379a0000000000000000000000000000000000000000000000000000000008152600401610f97906122af565b60405180910390fd5b610fab83838361161a565b610fb6600082610d23565b6001600360008573ffffffffffffffffffffffffffffffffffffffff1673ffffffffffffffffffffffffffffffffffffffff168152602001908152602001600020600082825461100691906125d6565b925050819055506001600360008473ffffffffffffffffffffffffffffffffffffffff1673ffffffffffffffffffffffffffffffffffffffff168152602001908152602001600020600082825461105d919061254f565b92505081905550816002600083815260200190815260200160002060006101000a81548173ffffffffffffffffffffffffffffffffffffffff021916908373ffffffffffffffffffffffffffffffffffffffff160217905550808273ffffffffffffffffffffffffffffffffffffffff168473ffffffffffffffffffffffffffffffffffffffff167fddf252ad1be2c89b69c2b068fc378daa952ba7f163c4a11628f55a4df523b3ef60405160405180910390a461111c83838361161f565b505050565b8173ffffffffffffffffffffffffffffffffffffffff168373ffffffffffffffffffffffffffffffffffffffff161415611190576040517f08c379a0000000000000000000000000000000000000000000000000000000008152600401611187906122cf565b60405180910390fd5b80600560008573ffffffffffffffffffffffffffffffffffffffff1673ffffffffffffffffffffffffffffffffffffffff16815260200190815260200160002060008473ffffffffffffffffffffffffffffffffffffffff1673ffffffffffffffffffffffffffffffffffffffff16815260200190815260200160002060006101000a81548160ff0219169083151502179055508173ffffffffffffffffffffffffffffffffffffffff168373ffffffffffffffffffffffffffffffffffffffff167f17307eab39ab6107e8899845ad3d59bd9653f200f220920489ca2b5937696c318360405161128191906121f2565b60405180910390a3505050565b611299848484610eba565b6112a584848484611624565b6112e4576040517f08c379a00000000000000000000000000000000000000000000000000000000081526004016112db9061224f565b60405180910390fd5b50505050565b606060405180602001604052806000815250905090565b606061130c82610caf565b61134b576040517f08c379a0000000000000000000000000000000000000000000000000000000008152600401611342906123ef565b60405180910390fd5b60006113556112ea565b9050600081511161137557604051806020016040528060008152506113a0565b8061137f846117bb565b604051602001611390929190612167565b6040516020818303038152906040525b915050919050565b6001816000016000828254019250508190555050565b600081600001549050919050565b600073ffffffffffffffffffffffffffffffffffffffff168273ffffffffffffffffffffffffffffffffffffffff16141561143c576040517f08c379a00000000000000000000000000000000000000000000000000000000081526004016114339061238f565b60405180910390fd5b61144581610caf565b15611485576040517f08c379a000000000000000000000000000000000000000000000000000000000815260040161147c9061228f565b60405180910390fd5b6114916000838361161a565b6001600360008473ffffffffffffffffffffffffffffffffffffffff1673ffffffffffffffffffffffffffffffffffffffff16815260200190815260200160002060008282546114e1919061254f565b92505081905550816002600083815260200190815260200160002060006101000a81548173ffffffffffffffffffffffffffffffffffffffff021916908373ffffffffffffffffffffffffffffffffffffffff160217905550808273ffffffffffffffffffffffffffffffffffffffff16600073ffffffffffffffffffffffffffffffffffffffff167fddf252ad1be2c89b69c2b068fc378daa952ba7f163c4a11628f55a4df523b3ef60405160405180910390a46115a26000838361161f565b5050565b6115af82610caf565b6115ee576040517f08c379a00000000000000000000000000000000000000000000000000000000081526004016115e59061236f565b60405180910390fd5b8060066000848152602001908152602001600020908051906020019061161592919061198b565b505050565b505050565b505050565b60006116458473ffffffffffffffffffffffffffffffffffffffff16611968565b156117ae578373ffffffffffffffffffffffffffffffffffffffff1663150b7a0261166e610d1b565b8786866040518563ffffffff1660e01b815260040161169094939291906121a6565b602060405180830381600087803b1580156116aa57600080fd5b505af19250505080156116db57506040513d601f19601f820116820180604052508101906116d89190611d8b565b60015b61175e573d806000811461170b576040519150601f19603f3d011682016040523d82523d6000602084013e611710565b606091505b50600081511415611756576040517f08c379a000000000000000000000000000000000000000000000000000000000815260040161174d9061224f565b60405180910390fd5b805181602001fd5b63150b7a0260e01b7bffffffffffffffffffffffffffffffffffffffffffffffffffffffff1916817bffffffffffffffffffffffffffffffffffffffffffffffffffffffff1916149150506117b3565b600190505b949350505050565b60606000821415611803576040518060400160405280600181526020017f30000000000000000000000000000000000000000000000000000000000000008152509050611963565b600082905060005b6000821461183557808061181e90612730565b915050600a8261182e91906125a5565b915061180b565b60008167ffffffffffffffff811115611877577f4e487b7100000000000000000000000000000000000000000000000000000000600052604160045260246000fd5b6040519080825280601f01601f1916602001820160405280156118a95781602001600182028036833780820191505090505b5090505b6000851461195c576001826118c291906125d6565b9150600a856118d19190612779565b60306118dd919061254f565b60f81b818381518110611919577f4e487b7100000000000000000000000000000000000000000000000000000000600052603260045260246000fd5b60200101907effffffffffffffffffffffffffffffffffffffffffffffffffffffffffffff1916908160001a905350600a8561195591906125a5565b94506118ad565b8093505050505b919050565b6000808273ffffffffffffffffffffffffffffffffffffffff163b119050919050565b828054611997906126cd565b90600052602060002090601f0160209004810192826119b95760008555611a00565b82601f106119d257805160ff1916838001178555611a00565b82800160010185558215611a00579182015b828111156119ff5782518255916020019190600101906119e4565b5b509050611a0d9190611a11565b5090565b5b80821115611a2a576000816000905550600101611a12565b5090565b6000611a41611a3c846124aa565b612485565b905082815260208101848484011115611a5957600080fd5b611a6484828561268b565b509392505050565b6000611a7f611a7a846124db565b612485565b905082815260208101848484011115611a9757600080fd5b611aa284828561268b565b509392505050565b600081359050611ab981612d1e565b92915050565b600081359050611ace81612d35565b92915050565b600081359050611ae381612d4c565b92915050565b600081519050611af881612d4c565b92915050565b600082601f830112611b0f57600080fd5b8135611b1f848260208601611a2e565b91505092915050565b600082601f830112611b3957600080fd5b8135611b49848260208601611a6c565b91505092915050565b600081359050611b6181612d63565b92915050565b600060208284031215611b7957600080fd5b6000611b8784828501611aaa565b91505092915050565b60008060408385031215611ba357600080fd5b6000611bb185828601611aaa565b9250506020611bc285828601611aaa565b9150509250929050565b600080600060608486031215611be157600080fd5b6000611bef86828701611aaa565b9350506020611c0086828701611aaa565b9250506040611c1186828701611b52565b9150509250925092565b60008060008060808587031215611c3157600080fd5b6000611c3f87828801611aaa565b9450506020611c5087828801611aaa565b9350506040611c6187828801611b52565b925050606085013567ffffffffffffffff811115611c7e57600080fd5b611c8a87828801611afe565b91505092959194509250565b60008060408385031215611ca957600080fd5b6000611cb785828601611aaa565b9250506020611cc885828601611abf565b9150509250929050565b60008060408385031215611ce557600080fd5b6000611cf385828601611aaa565b925050602083013567ffffffffffffffff811115611d1057600080fd5b611d1c85828601611b28565b9150509250929050565b60008060408385031215611d3957600080fd5b6000611d4785828601611aaa565b9250506020611d5885828601611b52565b9150509250929050565b600060208284031215611d7457600080fd5b6000611d8284828501611ad4565b91505092915050565b600060208284031215611d9d57600080fd5b6000611dab84828501611ae9565b91505092915050565b600060208284031215611dc657600080fd5b600082013567ffffffffffffffff811115611de057600080fd5b611dec84828501611b28565b91505092915050565b600060208284031215611e0757600080fd5b6000611e1584828501611b52565b91505092915050565b611e278161260a565b82525050565b611e368161261c565b82525050565b6000611e478261250c565b611e518185612522565b9350611e6181856020860161269a565b611e6a81612866565b840191505092915050565b6000611e8082612517565b611e8a8185612533565b9350611e9a81856020860161269a565b611ea381612866565b840191505092915050565b6000611eb982612517565b611ec38185612544565b9350611ed381856020860161269a565b80840191505092915050565b6000611eec600e83612533565b9150611ef782612877565b602082019050919050565b6000611f0f603283612533565b9150611f1a826128a0565b604082019050919050565b6000611f32602583612533565b9150611f3d826128ef565b604082019050919050565b6000611f55601c83612533565b9150611f608261293e565b602082019050919050565b6000611f78602483612533565b9150611f8382612967565b604082019050919050565b6000611f9b601983612533565b9150611fa6826129b6565b602082019050919050565b6000611fbe602c83612533565b9150611fc9826129df565b604082019050919050565b6000611fe1603883612533565b9150611fec82612a2e565b604082019050919050565b6000612004602a83612533565b915061200f82612a7d565b604082019050919050565b6000612027602983612533565b915061203282612acc565b604082019050919050565b600061204a602e83612533565b915061205582612b1b565b604082019050919050565b600061206d602083612533565b915061207882612b6a565b602082019050919050565b6000612090603183612533565b915061209b82612b93565b604082019050919050565b60006120b3602c83612533565b91506120be82612be2565b604082019050919050565b60006120d6602f83612533565b91506120e182612c31565b604082019050919050565b60006120f9602183612533565b915061210482612c80565b604082019050919050565b600061211c603183612533565b915061212782612ccf565b604082019050919050565b61213b81612674565b82525050565b61214a8161267e565b82525050565b600061215c8284611eae565b915081905092915050565b60006121738285611eae565b915061217f8284611eae565b91508190509392505050565b60006020820190506121a06000830184611e1e565b92915050565b60006080820190506121bb6000830187611e1e565b6121c86020830186611e1e565b6121d56040830185612132565b81810360608301526121e78184611e3c565b905095945050505050565b60006020820190506122076000830184611e2d565b92915050565b600060208201905081810360008301526122278184611e75565b905092915050565b6000602082019050818103600083015261224881611edf565b9050919050565b6000602082019050818103600083015261226881611f02565b9050919050565b6000602082019050818103600083015261228881611f25565b9050919050565b600060208201905081810360008301526122a881611f48565b9050919050565b600060208201905081810360008301526122c881611f6b565b9050919050565b600060208201905081810360008301526122e881611f8e565b9050919050565b6000602082019050818103600083015261230881611fb1565b9050919050565b6000602082019050818103600083015261232881611fd4565b9050919050565b6000602082019050818103600083015261234881611ff7565b9050919050565b600060208201905081810360008301526123688161201a565b9050919050565b600060208201905081810360008301526123888161203d565b9050919050565b600060208201905081810360008301526123a881612060565b9050919050565b600060208201905081810360008301526123c881612083565b9050919050565b600060208201905081810360008301526123e8816120a6565b9050919050565b60006020820190508181036000830152612408816120c9565b9050919050565b60006020820190508181036000830152612428816120ec565b9050919050565b600060208201905081810360008301526124488161210f565b9050919050565b60006020820190506124646000830184612132565b92915050565b600060208201905061247f6000830184612141565b92915050565b600061248f6124a0565b905061249b82826126ff565b919050565b6000604051905090565b600067ffffffffffffffff8211156124c5576124c4612837565b5b6124ce82612866565b9050602081019050919050565b600067ffffffffffffffff8211156124f6576124f5612837565b5b6124ff82612866565b9050602081019050919050565b600081519050919050565b600081519050919050565b600082825260208201905092915050565b600082825260208201905092915050565b600081905092915050565b600061255a82612674565b915061256583612674565b9250827fffffffffffffffffffffffffffffffffffffffffffffffffffffffffffffffff0382111561259a576125996127aa565b5b828201905092915050565b60006125b082612674565b91506125bb83612674565b9250826125cb576125ca6127d9565b5b828204905092915050565b60006125e182612674565b91506125ec83612674565b9250828210156125ff576125fe6127aa565b5b828203905092915050565b600061261582612654565b9050919050565b60008115159050919050565b60007fffffffff0000000000000000000000000000000000000000000000000000000082169050919050565b600073ffffffffffffffffffffffffffffffffffffffff82169050919050565b6000819050919050565b600060ff82169050919050565b82818337600083830152505050565b60005b838110156126b857808201518184015260208101905061269d565b838111156126c7576000848401525b50505050565b600060028204905060018216806126e557607f821691505b602082108114156126f9576126f8612808565b5b50919050565b61270882612866565b810181811067ffffffffffffffff8211171561272757612726612837565b5b80604052505050565b600061273b82612674565b91507fffffffffffffffffffffffffffffffffffffffffffffffffffffffffffffffff82141561276e5761276d6127aa565b5b600182019050919050565b600061278482612674565b915061278f83612674565b92508261279f5761279e6127d9565b5b828206905092915050565b7f4e487b7100000000000000000000000000000000000000000000000000000000600052601160045260246000fd5b7f4e487b7100000000000000000000000000000000000000000000000000000000600052601260045260246000fd5b7f4e487b7100000000000000000000000000000000000000000000000000000000600052602260045260246000fd5b7f4e487b7100000000000000000000000000000000000000000000000000000000600052604160045260246000fd5b6000601f19601f8301169050919050565b7f416c7265616479206d696e746564000000000000000000000000000000000000600082015250565b7f4552433732313a207472616e7366657220746f206e6f6e20455243373231526560008201527f63656976657220696d706c656d656e7465720000000000000000000000000000602082015250565b7f4552433732313a207472616e736665722066726f6d20696e636f72726563742060008201527f6f776e6572000000000000000000000000000000000000000000000000000000602082015250565b7f4552433732313a20746f6b656e20616c7265616479206d696e74656400000000600082015250565b7f4552433732313a207472616e7366657220746f20746865207a65726f2061646460008201527f7265737300000000000000000000000000000000000000000000000000000000602082015250565b7f4552433732313a20617070726f766520746f2063616c6c657200000000000000600082015250565b7f4552433732313a206f70657261746f7220717565727920666f72206e6f6e657860008201527f697374656e7420746f6b656e0000000000000000000000000000000000000000602082015250565b7f4552433732313a20617070726f76652063616c6c6572206973206e6f74206f7760008201527f6e6572206e6f7220617070726f76656420666f7220616c6c0000000000000000602082015250565b7f4552433732313a2062616c616e636520717565727920666f7220746865207a6560008201527f726f206164647265737300000000000000000000000000000000000000000000602082015250565b7f4552433732313a206f776e657220717565727920666f72206e6f6e657869737460008201527f656e7420746f6b656e0000000000000000000000000000000000000000000000602082015250565b7f45524337323155524953746f726167653a2055524920736574206f66206e6f6e60008201527f6578697374656e7420746f6b656e000000000000000000000000000000000000602082015250565b7f4552433732313a206d696e7420746f20746865207a65726f2061646472657373600082015250565b7f45524337323155524953746f726167653a2055524920717565727920666f722060008201527f6e6f6e6578697374656e7420746f6b656e000000000000000000000000000000602082015250565b7f4552433732313a20617070726f76656420717565727920666f72206e6f6e657860008201527f697374656e7420746f6b656e0000000000000000000000000000000000000000602082015250565b7f4552433732314d657461646174613a2055524920717565727920666f72206e6f60008201527f6e6578697374656e7420746f6b656e0000000000000000000000000000000000602082015250565b7f4552433732313a20617070726f76616c20746f2063757272656e74206f776e6560008201527f7200000000000000000000000000000000000000000000000000000000000000602082015250565b7f4552433732313a207472616e736665722063616c6c6572206973206e6f74206f60008201527f776e6572206e6f7220617070726f766564000000000000000000000000000000602082015250565b612d278161260a565b8114612d3257600080fd5b50565b612d3e8161261c565b8114612d4957600080fd5b50565b612d5581612628565b8114612d6057600080fd5b50565b612d6c81612674565b8114612d7757600080fd5b5056fea2646970667358221220e0058057792d6cf45ee202e1e225d611e453674f3c08c6e72b0916a3b512b95664736f6c63430008040033",
  "linkReferences": {},
  "deployedLinkReferences": {}
}